:020000040800F2
:10000000A8070020350200082F220008BB200008A6
:100010002D22000841070008072900080000000001
:10002000000000000000000000000000DD230008C8
:10003000430700080000000031220008DF23000809
:100040004F0200084F0200084F0200084F0200084C
:100050004F0200084F0200084F0200084F0200083C
:100060004F0200084F0200084F0200084F0200082C
:100070004F0200084F0200084F0200084F0200081C
:100080004F0200084F0200084F0200084F0200080C
:100090004F0200084F0200084F0200084F020008FC
:1000A0004F0200084F0200084F0200084F020008EC
:1000B0004F02000800000000000000004F0200088E
:1000C0004F02000800000000000000004F0200087E
:1000D000000000004F0200084F020008000000006E
:1000E0004F0200084F02000800000000000000005E
:1000F0000000000000000000000000000000000000
:100100000000000000000000000000004F02000896
:1001100000000000000000004F0200084F0200082D
:100120004F0200084F0200084F0200084F0200086B
:100130004F02000800000000000000000000000066
:100140004F0200084F0200084F0200084F0200084B
:100150004F0200084F0200084F0200084F0200083B
:100160004F0200084F0200084F0200080000000084
:100170004F0200084F0200080000000000000000CD
:100180004F0200084F0200084F02000800F002F87A
:1001900000F041F80AA090E8000C82448344AAF1E0
:1001A0000107DA4501D100F036F8AFF2090EBAE8DE
:1001B0000F0013F0010F18BFFB1A43F0010318479B
:1001C000B0280000D0280000103A24BF78C878C1B9
:1001D000FAD8520724BF30C830C144BF04680C604D
:1001E000704700000023002400250026103A28BF95
:1001F00078C1FBD8520728BF30C148BF0B60704799
:10020000642900F0F780002070471FB502F006FC5B
:100210001FBD10B510BD00F0CAF91146FFF7F5FF7C
:1002200002F082FB00F0E8F903B4FFF7F2FF03BC31
:1002300000F0F0F90948804709480047FEE7FEE76B
:10024000FEE7FEE7FEE7FEE7FEE7FEE7FEE7FEE786
:1002500004480549054A064B704700005924000828
:100260008D010008A8010020A8070020A803002095
:10027000A803002053EA020C00F069802DE9F04B3E
:100280004FF00006002B1FBFB3FA83F503FA05F405
:1002900024FA05F65E4012BF1643B2FA82F502FA5E
:1002A00005F4C5F120051EBF22FA05FC44EA0C0442
:1002B000203556EA044C4FEA144418BF641C4FF032
:1002C00000084FF00009904271EB030C39D300296C
:1002D00019BFB1FA81F701FA07F6B0FA80F700FA10
:1002E00007F6C7F120071EBF20FA07FC46EA0C06F6
:1002F0002037B6FBF4FCA7EB0507103F07F01F0BF8
:10030000CBF120060CFA0BFB2CFA06F644BFB346E1
:100310000026202FA4BF5E464FF0000B5BEA060CC0
:1003200008BF4FF0010B19EB0B09ABFB027C48EB4C
:100330000608C01B06FB02CC0BFB03CC71EB0C01C7
:10034000C1E70B46024641464846BDE8F08B13B56F
:100350004FF000004FF00001AFF30080BDE81C40FB
:10036000704700000FB41CB5074B06AA7B446946D2
:100370000090059800F003F90020694600F012F99A
:100380001CBC5DF814FB0000350200002DE9F041B3
:100390000E460446002020622046E168884730B3BC
:1003A000252805D0D4E901219047206A401CF2E7B6
:1003B000E168204600278847050018D0A5F14100D4
:1003C000192802D820354FF40067324629462046C6
:1003D0002760FFF715FF40B1012804D0F61D26F075
:1003E00007060836D8E7361DD6E72846DAE7206A3A
:1003F000BDE8F0812DE9F04106460024106875291A
:10040000314616A510D0AFF30080002802DA404232
:1004100013A507E031688A0701D512A502E0490754
:1004200004D511A5012401E0AFF3008000210A22C8
:1004300006F1240709E0B0FBF2FCB0FBF2F302FB8B
:100440001C00303078541846491C0028F3D123464C
:100450002A463046BDE8F04100F032B80000000006
:100460002D0000002B000000200000004FF00002D3
:1004700000B5134694469646203922BFA0E80C509A
:10048000A0E80C50B1F12001BFF4F7AF090728BF75
:10049000A0E80C5048BF0CC05DF804EB890028BFF1
:1004A00040F8042B08BF704748BF20F8022B11F01A
:1004B000804F18BF00F8012B704770477047704796
:1004C0002DE9F0470D4699469246044600F124086E
:1004D0000168880604D5E06921F01001216000E080
:1004E0000120A84201DD471B00E00027A1697A191D
:1004F00002EB0900081AA0612078C00602D4204649
:10050000AFF30080002608E0D4E901211AF80600C4
:100510009047206A401C761C20624E45F4DB207810
:10052000C0060AD52046AFF3008006E0D4E90121D9
:1005300030209047206A401C2062381EA7F1010736
:10054000F4DC07E0D4E9012118F805009047206A9F
:10055000401C2062281EA5F10105F3DC2046AFF304
:1005600000802078000602D50220BDE8F087012037
:10057000FBE7000001694A1C02610878704700B57A
:100580008FB0CDE901310021059105497944CDE9CC
:10059000031011466846FFF7F9FE0FB000BD0000DA
:1005A000E5FFFFFF0A6802F8010B0A607047754615
:1005B00000F02CF8AE4605006946534620F00700CF
:1005C000854618B020B5FFF743FEBDE820404FF048
:1005D00000064FF000074FF000084FF0000B21F02D
:1005E0000701AC46ACE8C009ACE8C009ACE8C009FA
:1005F000ACE8C0098D46704710B50446AFF30080E3
:100600002046BDE81040FFF70FBE000000487047CD
:100610004401002001491820ABBEFEE7260002007D
:100620007047000070B50446006881688268C1F3B5
:10063000400112F0010F28D039BB816801F00D0193
:10064000012914D18168124A1140891C81602168F6
:100650000320086000F096FD054612E000F092FDD0
:10066000401B02280DD920688068C00709D0606D42
:1006700040F010006065A06D40F00100A065012011
:1006800070BD20688068C007E8D1002070BD000000
:10069000C0FFFF7FF8B50446002000902068816805
:1006A00011F0010F41D18168214A11422ED1816898
:1006B000D5432940491C81601E48806800F0E070E5
:1006C00000020DD51C481D490068B0FBF1F0401C2C
:1006D00000EB4000800000E0401E00900028FBD1AD
:1006E00000F050FD06461BE0816811F0010F03D1B8
:1006F00081682940491C816000F044FD801B02286C
:100700000ED920680068C043C00709D0606D40F072
:1007100010006065A06D40F00100A0650120F8BDEB
:1007200020680168C943C907DED10020F8BD000078
:100730003F000080000304500C000020400D030027
:10074000FEE7704772B6FEE7F8B50026044600964D
:1007500090F850000D4601280BD0012084F850007D
:100760002046FFF75FFF0100606D04D040F01000ED
:100770002BE00220F8BD20F4885040F002006065B4
:1007800020688268134B1A4005F080431A4342F0F8
:10079000004282604FF4912320680EE0009A521CC0
:1007A00000929A4209D3606D20F0020040F01000E0
:1007B000606584F850600120F8BD8268D20FEDD1E9
:1007C000606D20F0020040F00100606584F8506028
:1007D0000846F8BDC0FFFF3F2DE9F84F002704464B
:1007E000009790F85000DFF8B0930D46B846012806
:1007F00011D0012684F85060206801F069FC60B1D6
:10080000606D40F0200060655FF0010784F8508063
:10081000384600F0D7B90220FBE769680C200529AB
:1008200012D8022907D0032907D0042907D00529A7
:1008300007D0062107E0686006E0122103E01821D6
:1008400001E04FF480716960D5E90021236800EA76
:1008500091101844036B01F01F014FF01F0C0CFAAC
:1008600001FCC2F3846223EA0C038A40134303634E
:10087000206801F02DFC8246206801F025FC5AEA30
:1008800000001DD1AA682968206801F02DFC2068AD
:100890006969C268C2F3C102520091402A69042A00
:1008A0000FD000EB82002B68026EDFF8F0C203F07D
:1008B000F84302EA0C020B431A4342F0004101667E
:1008C00072E0002101F0FAFB400320684FF00001C4
:1008D00072D001F0F3FB90FAA0F0B0FA80F1286832
:1008E00042036ED090FAA0F0B0FA80F0814204D1B9
:1008F00000221146206801F006FC0121206801F069
:10090000DDFB400320684FF001015DD001F0D6FB14
:1009100090FAA0F0B0FA80F12868420359D090FA1A
:10092000A0F0B0FA80F0814204D1002201212068B9
:1009300001F0E9FB0221206801F0C0FB40032068C0
:100940004FF0020148D001F0B9FB90FAA0F0B0FAE4
:1009500080F12868420344D090FAA0F0B0FA80F009
:10096000814204D100220221206801F0CCFB032146
:10097000206801F0A3FB400320684FF0030133D04F
:1009800001F09CFB90FAA0F0B0FA80F128684203D5
:100990002FD090FAA0F0B0FA80F0814204D100226A
:1009A0000321206801F0AFFB2068816811F0010F7E
:1009B00022D0ACE000E004E001F080FBC0F38461F1
:1009C0008DE7C0F3846091E701F078FBC0F38461A8
:1009D000A2E7C0F38460A6E701F070FBC0F3846176
:1009E000B7E7C0F38460BBE701F068FBC0F3846144
:1009F000CCE7C0F38460D0E72A7B296850F8B03F89
:100A0000C1F3120C23EA0C0302F0180C644A22FA18
:100A10000CF20A4013430360E968494577D128681E
:100A200041031CD090FAA0F1B1FA81F1491C01F008
:100A30001F0109294FEA403132D8002912D000BFE6
:100A400090FAA0F1B1FA81F101F1010101F01F0169
:100A500006FA01F609D100BFC0F3846109E0C0F3D2
:100A60008461E3E7C0F38461EEE790FAA0F1B1FAA4
:100A700081F101F1010101F01F0146EA816102D11A
:100A8000C0F3846003E090FAA0F0B0FA80F000F1C7
:100A9000010000F01F0000EB400041EA005132E08D
:100AA00000290ED090FAA0F1B1FA81F101F1010113
:100AB00001F01F0106FA01F606D100BFC0F3846100
:100AC00006E0C0F38461F1E790FAA0F1B1FA81F198
:100AD00001F1010101F01F0146EA816102D1C0F379
:100AE000846003E090FAA0F0B0FA80F000F1010019
:100AF00000F01F002B4A00EB400002EB005041EADF
:100B0000000141F00071AA68206801F0EDFA264862
:100B10002A6802423FF47AAE24488168244D254B6E
:100B200001F0E071AA421BD10D0219D422689A4249
:100B30007FF46CAE826841F4000122F0E0720A4357
:100B400082601D481D490068B0FBF1F0401C00EBBD
:100B50004000800000E0401E00900028FBD155E6D8
:100B6000174DAA4207D1CD0105D422689A42F6D189
:100B700041F080710AE06FF00045EA42EFD14A028D
:100B8000EDD422689A42EAD141F48001826822F0D1
:100B9000E0720A43826039E600007F4000F0FF0304
:100BA000FFFF0700000020FE000008800003045043
:100BB000000052C7000004500C000020400D03004C
:100BC000000084CB18BCBDE8E08F0068006C704763
:100BD000F8B54FF0000504002E46009502D0606D78
:100BE00010B107E00120F8BD204600F0C9F8A66565
:100BF00084F8506020688168C1F3407119B1816840
:100C0000574A1140816020688168C1F3007189B939
:100C10008168544A114041F08051816052485349E3
:100C20000068B0FBF1F04000801C00E0401E009026
:100C30000028FBD120688168C1F3007141B9616D62
:100C400041F010016165A16D41F00101A16501252F
:100C500001F03EFA616DC90600D430B1606D40F01C
:100C60001000606501252846F8BD606D20F4807095
:100C700040F0020060652068806810F0010F0BD121
:100C80003B48806810F0010F06D13A4861688268DD
:100C900022F47C120A438260E168606B627E084342
:100CA000A16841EA4231084394F8201040EA01402B
:100CB000012904D1A18C304A02EB41410843A16AC9
:100CC00029B101F47071E26A014342EA010021682E
:100CD000CA682A4B1A400243CA60206801F0F8F93A
:100CE0000646206801F0F0F9304315D1207E94F8D3
:100CF0003010800340EA41002168CA6844F20203D0
:100D00009A430243CA6094F8380001280CD0206846
:100D1000016921F001010161206901282068016B4E
:100D200021F00F0111D013E0D4E90F010843D4E9F9
:100D300011121143084321680A6940F2FC739A4377
:100D4000104340F001000861E6E7E269521E1143DA
:100D50000163606D20F0020040F00100606582E7F1
:100D6000C0FFFF5FC0FFFF7F0C000020400D0300AD
:100D700000000450000304500000FEFF07C0F0FF15
:100D800010B59CB00446142115A8FFF76FFB542141
:100D90006846FFF76BFB1C492068884231D14FF44D
:100DA000804000908003129001200190029010205A
:100DB000039007200224CDE904048801CDE9064010
:100DC000684600F0A3FA08B1FFF7BCFC0F48C16CFD
:100DD00041F40051C164C16C01F400511A91C16C1D
:100DE00041F00101C164C06C15A900F001001A9026
:100DF0000B20CDE91540002017904FF0904000F0F7
:100E0000B5F81CB010BD00000000045000100240F6
:100E10002DE9F041044640690E4608280AD02068B2
:100E2000C068C00708D0606D40F0200060650120F8
:100E3000BDE8F081082500E0042500F0A3F907468D
:100E400014E0701C12D000F09DF9C01BB04200D815
:100E500066B920680068284208D1606D40F004003F
:100E60006065002084F850000320E1E720680068F6
:100E70002842E6D0606D40F400706065206801F0A3
:100E80002BF980B1607E70B92068006800070AD530
:100E9000606D20F480706065606DC00403D4606D87
:100EA00040F0010060652068C168082D05D0490444
:100EB00001D40C2101600020BAE70821FAE7000004
:100EC00010B50446006801F003F910B1022108468C
:100ED00010BD94F8500001280CD0012084F8500077
:100EE0002046FFF7D7FB01004FF0000004D084F844
:100EF0005000ECE7022010BD626D40F601639A439A
:100F000042F480726265626DD20404D5A26D22F053
:100F10000602A26500E0A06523681C221A6084F81E
:100F200050002068C268920105D5626D22F400521B
:100F300042F4805262658268024B1A40121D826040
:100F4000C5E70000C0FFFF7F70B5044600F01AF946
:100F50000546601C02D004480078044400F012F9F1
:100F6000401BA042FAD370BD000000202DE9F04FD5
:100F7000DFF8E091002301270326A9F1040B85B0D7
:100F80000F2509F1040AABF1040EDBE007FA03FCBC
:100F900012EA0C027ED00C7904F00304012C01D07B
:100FA000022C20D1846800945C0006FA04F80494B2
:100FB000009C24EA08040094D1F80C80049C08FAF0
:100FC00004F8009C48EA0408C0F80880446824EA51
:100FD0000C0491F804C0CCF3001C0CFA03FC4CEA9E
:100FE000040CC0F804C00C79E443A4070DD0D0F879
:100FF0000CC04FEA430806FA08F42CEA040C8C688B
:1010000004FA08F444EA0C04C4600C7904F0030404
:10101000022C19D1DC0800EB84040294246A4FEA04
:10102000437C4FEADC6CCDF810C005FA0CFC24EAD6
:101030000C04D1F81080DDF810C008FA0CF848EA6A
:101040000408029CC4F8208004684FEA430806FAAA
:1010500008FC24EA0C0491F804C00CF0030C0CFA10
:1010600008FC4CEA040CC0F800C04C6814F4403F83
:1010700067D0394CD4F860C04CF0010CC4F860C0A3
:10108000246E23F0030C04F001040094334C6444F8
:10109000029400E055E0A4684FEA837C4FEA1C7894
:1010A00005FA08FC24EA0C04B0F1904F06D0DFF8F2
:1010B000B0C0604505D14FF0010C0BE04FF0000CC3
:1010C00008E0DFF8A0C0604502D14FF0020C01E05B
:1010D0004FF0070C0CFA08FC4CEA040C029CC4F814
:1010E00008C0D9F80040CC46D1F8048094435FEAA8
:1010F000C82800D51443CCF80040DAF80040D446A4
:10110000D1F8048094435FEA882800D51443CCF8D2
:101110000040DBF80040DC46D1F8048094435FEAED
:10112000883800D51443CCF80040DEF80040F4467F
:10113000D1F8048094435FEAC83800D51443CCF852
:1011400000405B1C0C682246DC407FF41FAF05B0FA
:1011500000F00AB8080401400010024000000140FD
:10116000000400480008004830BCBDE8C08F00699A
:10117000084000D0012070470AB181617047816248
:1011800070470000014880687047000000000020A0
:101190000248816802781144816070470000002095
:1011A00010B50024032000F063F80F2000F008F8C9
:1011B00008B1012401E000F025F8204610BD000030
:1011C00070B50E4E05460024307898B14FF47A7110
:1011D000B1FBF0F00A490968B1FBF0F000F0A4FDA2
:1011E00040B9102D06D200222946501E00F020F8EA
:1011F000756000E00124204670BD00000000002062
:101200000C000020094808B5016E41F0010101669B
:10121000016E01F001010091816D41F08051816505
:10122000806D00F08050009008BD0000001002406A
:10123000F0B40E4B1B680C46C3F30223C3F1070541
:10124000042D00D90425191D072901D2002300E02F
:10125000DB1E012606FA05F1491E214099409E40F9
:10126000761E16403143F0BC01F04EBB0CED00E0A1
:10127000064900F0070208684FF6FF03184040EAED
:101280000220034A10430860704700000CED00E0A4
:101290000000FA051649B0F5007F0868C0F3412048
:1012A00009D0022805D0086820F4C06040F48060AE
:1012B0000860002070470128FBD0086820F4C06057
:1012C00040F4007008600B483222006850430A4A1C
:1012D000B0FBF2F0401C00E0401E4A69520501D507
:1012E0000028F9D148694005E3D503207047000084
:1012F000007000400C00002040420F0002480068CF
:1013000000F4C06070470000007000402DE9F84F05
:101310000446002700889C4D3E46000515D5E06B2D
:1013200060B1B0F5000F04D0B0F5400F2BD001270D
:101330000AE0E86840F48030E86024E00021201DE5
:1013400000F078FF07001ED03E462068800338D5A5
:10135000A86D4FF00008C00009D4A86D40F080507F
:10136000A865A86D4FF0010800F080500090DFF8EC
:101370001CA2DAF8001041F48071CAF80010FFF7DF
:1013800001FF814610E0D5F88800E16B20F44000B1
:101390000843C5F88800D8E7FFF7F4FEA0EB090082
:1013A000022801D9032704E0DAF80000C005F3D5CC
:1013B000EFB33E46B8F1000F03D0A86D20F0805087
:1013C000A8652078C00707D0D5F88800216A20F0EA
:1013D00003000843C5F888002078800707D5D5F8B2
:1013E0008800616A20F00C000843C5F88800207866
:1013F000800607D5D5F88800A16A20F4406008432C
:10140000C5F888002088800507D5D5F88800616B6D
:1014100020F440200843C5F888002088400509D5FD
:10142000D5F88800A16B20F44010084300E02EE0BE
:10143000C5F888002078400607D5D5F88800E16A0D
:1014400020F440500843C5F888002088C00507D51F
:10145000D5F88800216B20F440300843C5F8880097
:1014600020884FF0006780044FF080684ED5D5F893
:101470008800216C20F040600843C5F88800206C8B
:10148000B8423BD1E86840F48010E8603EE0D5F80F
:10149000900010F4407014D0216D814211D0D5F825
:1014A0009000D5F8901020F4407041F48031C5F8D8
:1014B0009010D5F8901021F48031C5F89010C5F83F
:1014C0009000C00711D0FFF75DFE074641F2883952
:1014D00007E000BFFFF756FEC11B494501D90326AF
:1014E00068E7D5F890008007F4D5D5F89000216D15
:1014F00020F440700843C5F890005BE7404505D1F3
:101500000121201D00F096FE00B106462068400330
:1015100017D5D5F88800616C20F040600843C5F805
:101520008800606CB84204D1E86840F48010E8603C
:1015300007E0404505D10121201D00F07BFE00B1F0
:1015400006462088400411D5D5F88800A16C20F00B
:1015500040500843C5F88800A06CB0F1805F05D109
:101560000221201D00F066FE00B10646208800041E
:1015700006D555F8880FE16C20F0804008432860BC
:10158000304600F005B80000001002400070004036
:1015900018BCBDE8E08F00002DE9F0470F460500BC
:1015A0006BD0494E306800F00700B84209D230686D
:1015B00020F0070038433060306800F00700B84280
:1015C0005BD12878414C80070AD5A868A16801F052
:1015D000F001884204D9A16821F0F0010143A16023
:1015E0002878C0072CD06868032811D0022812D0B0
:1015F000216898B1490500293FDAA16821F003016B
:101600000143A160FFF7BEFD804641F2883910E03A
:1016100021688901EFE721688903ECE78907EAE798
:10162000FFF7B0FDA0EB0801494502D90320BDE852
:10163000F087A068696800F00C00B0EB810FEFD173
:10164000287880070AD5A868A16801F0F0018842CF
:1016500004D2A16821F0F0010143A160306800F0DC
:101660000700B8420BD9306820F0070038433060DB
:10167000306800F00700B84201D00120D7E7287891
:10168000400705D5A068E96820F4E0600843A06041
:101690002878000706D5A068296920F4605040EA40
:1016A000C100A06000F03EF8A168094AC1F303112F
:1016B000515C01F01F01C8400649086006480068F7
:1016C000BDE8F047FFF77CBD00200240001002405B
:1016D000282A00080C0000200400002005480649C4
:1016E00000688968054AC1F30221515C01F01F01BD
:1016F000C84070470C00002000100240682A000813
:101700000548064900688968054AC1F3C221515C51
:1017100001F01F01C84070470C000020001002407B
:10172000682A000870B52549002318468A68CC68E5
:1017300012F00C0204F00306214C4FEA640509D0B4
:101740000C2A05D0042A32D0082A00D1284670BDC0
:10175000012E10D10B681B0704D4D1F89430C3F3C9
:10176000032302E00B68C3F30313164E56F823302D
:10177000DAB10C2AEBD1C86800F00300022818D0B7
:10178000032818D01846CA68CB68C2F30212C3F304
:1017900006234343521CB3FBF2F2C868C0F3416016
:1017A000401C4000B2FBF0F070BD184670BD2046F2
:1017B00070BD2046E7E72846E5E70000001002403C
:1017C0000024F400382A00082DE9F84304006FD003
:1017D000FA4DA86800F00C06E86800F003072078CE
:1017E000C00664D576B10C2E01D1012F0AD0A069B4
:1017F000002828687AD040F001002860FFF7C2FC7A
:1018000080465DE02868800702D5A0690028DED008
:10181000216A2868000703D5286800F0F00004E07A
:10182000D5F89400F02202EA1010814216D9084639
:1018300000F096FD00283BD1286840F008002860A1
:101840002868216A20F0F000084328606868E16990
:1018500020F47F4040EA0120686016E0286840F0EC
:10186000080028602868216A20F0F00008432860FA
:101870006868E16920F47F4040EA0120686026B989
:10188000206A00F06DFD0028D5D1FFF74BFFA96855
:10189000CB4AC1F30311515C01F01F01C840C94993
:1018A0000860C9480068FFF78BFC00287ED12EE055
:1018B000CAE000BFFFF766FCA0EB0800022876D85C
:1018C00028688007F6D5286840F008002860286856
:1018D000216A20F0F000084328606868E16920F47C
:1018E0007F4040EA0120686011E0FFE720F001003E
:1018F0002860FFF747FC804606E000BFFFF742FC88
:10190000A0EB08000228DAD828688007F6D42078EF
:10191000C00740D0082E18D00C2E01D1032F14D0B0
:101920006068B0F5803F17D0B0F5A02F286817D0B9
:1019300020F480302860286820F4802028606068C7
:10194000E0B1FFF71FFC804614E02868800322D531
:101950006068002878D01EE0286840F48030EDE709
:1019600040F480202860F7E7FFF70CFCA0EB0800AC
:101970006428A4D828688003F6D50CE0FFF702FCA1
:10198000804605E0FFF7FEFBA0EB0800642896D830
:1019900028688003F6D4207880073BD5042E11D028
:1019A0000C2E01D1022F0DD0E06801E0AAE1FFE08A
:1019B000002828681ED040F480702860FFF7E2FB02
:1019C00007460CE0286840050CD5E0680028C1D027
:1019D00008E000BFFFF7D6FBC01B022893D8286899
:1019E0004005F7D56868217C20F0F85040EA016096
:1019F00068600FE020F480702860FFF7C3FB0746A3
:101A000005E000BFFFF7BEFBC01B0228B1D8286865
:101A10004005F7D42078000729D560690028D5F85B
:101A2000940012D040F00100C5F89400FFF7AAFB23
:101A3000074604E0FFF7A6FBC01B022899D8D5F89B
:101A400094008007F6D512E02BE120F00100C5F8E4
:101A50009400FFF797FB074605E000BFFFF792FBF6
:101A6000C01B022885D8D5F894008007F6D42078CA
:101A7000400766D5A86D0027C00008D4A86D40F0C7
:101A80008050A865A86D012700F0805000904F4855
:101A90000168C90512D40168814641F48071016072
:101AA000FFF770FB804605E0FFF76CFBA0EB08003A
:101AB00002287DD8D9F80000C005F5D5A068012816
:101AC00016D00528D5F8900017D020F00100C5F8F1
:101AD0009000D5F8900020F0040000BFC5F89000F9
:101AE000A06841F28839C0B1FFF74CFB80460FE097
:101AF000D5F8900040F00100F0E740F00400C5F890
:101B00009000F5E7FFF73EFBA0EB080149454FD8F1
:101B1000D5F890008007F5D50EE0FFF733FB80463F
:101B200006E000BFFFF72EFBA0EB080149453FD8B8
:101B3000D5F890008007F5D41FB1A86D20F0805033
:101B4000A8652078800628D5606A0028D5F8980016
:101B500012D040F00100C5F89800FFF713FB0746CC
:101B600005E000BFFFF70EFBC01B022820D8D5F808
:101B700098008007F6D510E020F00100C5F8980025
:101B8000FFF700FB074604E0FFF7FCFAC01B022842
:101B90000ED8D5F898008007F6D4A06AF0B30228D2
:101BA00016D00C2E7DD0286820F08070286000E0D0
:101BB000A7E0FFF7E7FA0446A6E0000000100240A5
:101BC000282A00080C0000200400002000700040BB
:101BD000E868E26A00F00301914228D1216B00F02D
:101BE000700209011039914221D1626B00F4FE416B
:101BF000B1EB022F1BD194F8382000F07841B1EB03
:101C0000C26F14D1A18F00F4C00249084905A1F5A3
:101C1000001191420BD194F8401000E06AE04908AD
:101C2000490600F0C060A1F1007181424BD00C2E3A
:101C300073D02868400170D4286820F08070286034
:101C4000FFF7A0FA064604E0FFF79CFA801B022883
:101C500057D828688001F7D4F4E90B016FF00F0220
:101C600002EB01110843218A5204490802EB415159
:101C7000A26841EA02210843217D4FF07E424908D3
:101C800002EB41610843217B40EAC160E968244AD4
:101C900011400843E860286840F080702860E868D8
:101CA00000E03AE040F08070E860FFF76BFA04462D
:101CB00005E000BFFFF766FA001B022821D828685C
:101CC0008001F7D527E02868800124D4286840F0F7
:101CD00080702860E86840F08070E860FFF752FA92
:101CE000044604E0FFF74EFA001B022809D82868D2
:101CF0008001F7D50FE000BFFFF744FA001B022870
:101D000002D90320BDE8F88328688001F4D4E8688C
:101D100004490840E8600020F4E70120F2E70000F1
:101D20008C809D01FCFFEEFE10B5401EB0F1807F5F
:101D300001D3012010BD4FF0E02460610F21601736
:101D400000F0E2FD0020A06107202061002010BD0E
:101D5000F0B590F83C20012A29D0012480F83C40BD
:101D6000022280F83D2003685A689D68114EB342F4
:101D700003D122F470074A683A4322F070070A68D8
:101D80003A435A600268B24205D0B2F1804F02D0A5
:101D9000094B9A4204D1896825F080031943916068
:101DA00080F83D40002180F83C100846F0BD02203C
:101DB000F0BD0000002C01400040014010B50400BF
:101DC00003D094F83D0010B107E0012010BD0020C1
:101DD00084F83C00204600F023F8022084F83D00FF
:101DE000211D206800F040FB012084F8480084F8A1
:101DF0003E0084F83F0084F8400084F8410084F8F5
:101E0000420084F8430084F8440084F8450084F8D4
:101E1000460084F8470084F83D00002010BD000013
:101E200008B50068B0F1804F08D10548816D41F0D8
:101E300001018165806D00F00100009008BD000087
:101E40000010024070B5044690F83C0000250128BF
:101E500017D0012684F83C60022084F83D002268F7
:101E600090682F4B184020F47F40906008685028FD
:101E700038D00DDC20284FD005DC90B3102811D1CC
:101E80004AE0022070BD302846D040280AD13BE00D
:101E900060282FD070280DD0B0F5805F03D0B0F54A
:101EA000005F12D0012584F83D60002084F83C00DA
:101EB000284670BDCB68D1E90121206800F00AFBFB
:101EC0002068816841F0770109E0CB68D1E9012100
:101ED000206800F0FFFA2068816841F48041816049
:101EE000E1E719E0CA684968206800F005FB502165
:101EF000206806E0CA684968206800F00EFB60218F
:101F0000206800F0F1FACEE7CA684968206800F05E
:101F1000F3FA40212068F4E7226801461046F0E712
:101F200088FFFEFF10B5040002D0A06F10B107E0DB
:101F3000012010BD002084F87400204600F026F82F
:101F40002420A0672068016821F00101016020467B
:101F500000F088FB0128ECD0606A10B1204600F048
:101F6000EEFA2068416821F4904141602068816860
:101F700021F02A0181602068016841F001010160BF
:101F80002046BDE8104000F03EBB000030B59BB0DD
:101F90000446142115A8FEF769FA54216846FEF795
:101FA00065FA16492068884226D102240025684631
:101FB00009950094FFF7AAF908B1FEF7C3FB104892
:101FC000816D41F400318165816D01F400311A9118
:101FD000C16C41F00101C164C06C15A900F00100A1
:101FE0001A900C2081E831000320189007201990E6
:101FF0004FF09040FEF7BAFF1BB030BD00440040E8
:10200000001002402DE9F8430446806F1F46164633
:102010000D4620284FD1CDB1C6B194F874000128E7
:1020200049D0012084F874004FF00008C4F8808083
:102030002120A067FFF7A6F8A4F850608146A4F815
:102040005260A068B0F5805F03D004E00120BDE8D5
:10205000F883206928B12E465FF0000584F874806B
:1020600010E00026FAE78021204600F0E9FBB8B92D
:10207000C6B116F8010B21680885B4F85200401E5D
:10208000A4F85200B4F852004B464FF000020097FB
:102090000028E8D14FF04001204600F0D1FB30B1DC
:1020A0000320D4E735F8020BC0F30800E3E7202053
:1020B000A0670020CBE70220C9E7FEE700EB810024
:1020C000006E00F0F84070478068C0F3C0007047B1
:1020D0008068C0F380007047C06810F4406F01D082
:1020E0000020704701207047042303EAD15310B544
:1020F00018444369C1F3045107248C40A3438A4028
:102100001343436110BD00EB8100016E21F00041DB
:10211000114301667047000030B587B0182168464A
:10212000FEF7A4F9184817490024C0E90014846098
:102130000425C460C0E90445047644760121C161E8
:1021400080F820408462C46280F83040446380F8A4
:102150003840FEF73DFD08B172B6FEE70B4800902F
:102160000620CDE901047F200594CDE903056946E9
:102170000548FEF731FB002801D072B6FEE707B034
:1021800030BD000000000450100000204000201965
:1021900010B588B00024164800940194029403946A
:1021A000049405944FF080410694C0E90014611E28
:1021B000C0E9024104618461FFF700FE08B172B614
:1021C000FEE74FF48050009069460948FFF73AFE59
:1021D00008B172B6FEE7049404A905480694FFF717
:1021E000B7FD002801D072B6FEE708B010BD0000B0
:1021F000740000200C4810B50A4901604FF4E13129
:102200004160002181600C22C160C0E9041281613B
:10221000C16101624162FFF785FE002801D072B6FC
:10222000FEE710BD00440040C0000020FEE7FEE7CE
:10223000704700002DE9F041444C05468846E068AF
:102240000026810728680DD0E16801F00301814272
:1022500016D1A8B1E0686968C0F30210401C88423A
:102260000ED120E0012804D0022805D0032807D190
:1022700008E02168890701E021684905002907DB9A
:1022800001265FE02168890302D421684903F5E74C
:10229000E1686A686FF00F0321F0730103EB02122B
:1022A00011430143E160206820F080602060FEF768
:1022B00069FF074605E000BFFEF764FFC01B022868
:1022C00037D820680001F7D4B8F1000F18D0B8F162
:1022D000010F1DD0287D4FF07E41400801EB40608A
:1022E000A96840EA01202169194A11400843206188
:1022F000206840F080602060FEF744FF07461AE047
:10230000A868297B000240EAC1602169114AECE714
:10231000288A1149400801EB4050A96840EA012091
:1023200021690E4AE1E700BFFEF72CFFC01B02281F
:1023300001D9032606E020680001F5D52069A969C6
:10234000084320613046BDE8F081000000100240E3
:10235000FF80FFF9FF80FF070000E0FFFF809FFF85
:10236000F8B51C4D06460024A86DC00002D5FEF746
:10237000C5FF0DE0A86D40F08050A865A86D00F085
:1023800080500090FEF7BAFFA96D21F08051A96539
:10239000B0F5007F04D0802E07D94FF003040AE087
:1023A000802E08D9A02E01D804E001D1022402E039
:1023B000702E00D101240848016821F00701214353
:1023C0000160006800F00700A04201D00120F8BDC4
:1023D0000020F8BD00100240002002407047FEF7C8
:1023E000D7BE10B596B044216846FEF73FF81421D9
:1023F00011A8FEF73BF84FF40070FEF74BFF08B151
:1024000072B6FEE7102000900120002460210690A3
:10241000CDE907410221CDE90A100C9024200D904E
:102420000720CDE90E0168461091FFF7CDF908B1FC
:1024300072B6FEE70F2011900320CDE91204149428
:10244000042111A81594FFF7A7F8002801D072B64F
:10245000FEE716B010BD00000248016841F47001AB
:102460000160704788ED00E070B50268164B4FF0D0
:102470008046984201D0B04203D122F070044A68ED
:102480002243124C124D984205D0B04203D0A042D4
:1024900001D0A84203D122F44076CA6832434E6983
:1024A00022F08002324302608A68C2620A68826255
:1024B000984203D0A04201D0A84201D1096901632A
:1024C0000121416170BD0000002C0140004001402D
:1024D0000044014010B5846842EA032224F47F449A
:1024E0000A432243826010BD826822F070020A43D0
:1024F00042F007018160704710B5036A046A24F056
:1025000001040462846924F0F00444EA021423F014
:102510000A020A438461026210BD10B5036A23F007
:10252000100303628369046A23F4704343EA0232AE
:1025300024F0A00343EA01118261016210BD90F80A
:102540002410C90706D001684A68836A22F4003261
:102550001A434A6090F82410890706D501684A6832
:10256000C36A22F480321A434A6090F82410490763
:1025700006D501684A68036B22F480221A434A6038
:1025800090F82410090706D501684A68436B22F4C5
:1025900000421A434A6090F82410C90606D5016823
:1025A0008A68836B22F480521A438A6090F8241060
:1025B000890606D501688A68C36B22F400521A4363
:1025C0008A6090F82410490611D501684A68036CA6
:1025D00022F480121A434A60016CB1F5801F06D1C3
:1025E00001684A68436C22F4C0021A434A6090F8BA
:1025F0002410090606D501684A68806C22F400227E
:1026000002434A607047F8B500260446C0F880606F
:10261000FEF7B8FD0546206800686FF07E470007AA
:1026200008D52B4600224FF400112046009700F0F9
:1026300007F960B92068006840070AD52B460022D8
:102640004FF480012046009700F0FAF808B103200B
:10265000F8BD2020A067E067266684F8746000203B
:10266000F8BD00002DE9F041044601688068226948
:10267000E66910436269002532431043694B0A68DA
:10268000694E324002430A6020684168E26821F4E2
:102690004051114341602168A069994201D0226AEA
:1026A00010438A6822F4306202438A605F492768D7
:1026B0005F488F420DD1D0F8880010F0030006D09B
:1026C000012838D0022834D0032821D135E0012157
:1026D0001FE058498F420BD1D0F8880010F00C0051
:1026E00025D0042827D0082823D00C2810D124E096
:1026F0009F420DD1D0F8880010F4406017D0B0F59B
:10270000806F18D0B0F5006F13D0B0F5406F14D0C3
:102710001021494A00264FF400409F422FD171B149
:1027200002290FD004290FD0082973D10FE000210E
:10273000EFE70221EDE70421EBE70821E9E7FEF7E7
:10274000CDFF03E0104602E0FEF7ECFFF0B3626855
:1027500002EB420181425DD8B0EB023F5AD8010E34
:1027600003025008181871410023FDF783FD334A16
:10277000A0F5407191424DD82168C8604BE0E369F3
:102780004FF6EF77834228D1092943D2DFE801F0E1
:1027900005080B420D4242421000FEF79FFF06E083
:1027A000FEF7AEFF03E0104602E0FEF7BBFF68B1A4
:1027B0004100606801EB5001B1FBF0F0A0F11001A5
:1027C000B94227D84FF6F071014000E023E0C0F392
:1027D000420001432068C1601DE009291AD2DFE8E8
:1027E00001F005080B190D1919191000FEF776FFF5
:1027F00006E0FEF785FF03E0104602E0FEF792FFD9
:1028000048B1616800EB5100B0FBF1F0A0F110019C
:10281000B94205D9012566662846A666BDE8F0815D
:1028200080B2A9E700800040F369FFEF0038014063
:1028300000100240004400400024F400FFFC0F00A0
:102840002DE9F0479A4617460E4604464FF0000918
:102850004FF02008089D4AE0681C48D0FEF792FC23
:10286000A0EB0A00A8422AD84DB3206801684907A6
:102870003DD5C069C043000539D421684FF40060DC
:102880000862206850E8001F21F4D07140E800126F
:10289000002AF6D12068083050E8001F21F001011D
:1028A00040E80012002AF5D1C4F87880C4F87C8092
:1028B000C4F8808084F874900320BDE8F087216814
:1028C00051E8000F20F4D07041E80002002AF6D150
:1028D0002068083050E8001F21F0010140E8001294
:1028E000002AF5D1C4F87880C4F87C80E2E720683B
:1028F000C06936EA000004D00020B842ACD0002005
:10290000DBE70120F9E7FEE70907090E002804DBF1
:1029100000F1E02080F80014704700F00F0000F193
:10292000E02080F8141D7047A0B0FEF739FCFFF7D7
:1029300058FD142119A8FDF799FD3448C16C41F0E8
:102940000101C164C06C4FF4007500F001004FF04C
:1029500090461E90002229463046FEF70DFC0024CA
:102960000120CDE91A04199519A930461C94FEF7E7
:10297000FDFA6F00CDE9197419A930461B94FEF7D2
:10298000F5FAFFF7C9FBFFF703FCFFF733FC7F21E4
:102990001F48FDF7D9FE64216846FDF767FD40F248
:1029A000DC5441F2883AA8464FF4FA791848FEF709
:1029B00087FA01211648FEF72BFA1548FEF705F9AC
:1029C0000546024613A16846FDF7CCFC1048642377
:1029D0001A466946B030FFF715FBA5420DDD3946B2
:1029E0003046FEF7C4FB40B1012241463046FEF7B7
:1029F000C3FB5046FEF7A8FA04E0002241463046E9
:102A0000FEF7BAFB4846FEF79FFACFE700100240F8
:102A10001000002025640D0A000000004FF04070F7
:102A2000E1EE100A70470000000000000000000006
:102A30000102030406070809A0860100400D0300F7
:102A4000801A060000350C0040420F0080841E00F2
:102A500000093D0000127A000024F40000366E01E7
:102A60000048E801006CDC020000000001020304E1
:102A7000902A00080000002010000000C801000893
:102A8000A02A00081000002098070000E4010008B8
:102A900001000000100000000000000000093D00DF
:040000050800018D61
:00000001FF
