:020000040800F2
:1000000040070020350200083B190008E3170008EC
:1000100039190008DB05000817200008000000005F
:10002000000000000000000000000000E91A0008C5
:10003000DD050008000000003D190008EB1A00086B
:100040004F0200084F0200084F0200084F0200084C
:100050004F0200084F0200084F0200084F0200083C
:100060004F0200084F0200084F0200084F0200082C
:100070004F0200084F0200084F0200084F0200081C
:100080004F0200084F0200084F0200084F0200080C
:100090004F0200084F0200084F0200084F020008FC
:1000A0004F0200084F0200084F0200084F020008EC
:1000B0004F02000800000000000000004F0200088E
:1000C0004F02000800000000000000004F0200087E
:1000D000000000004F0200084F020008000000006E
:1000E0004F0200084F02000800000000000000005E
:1000F0000000000000000000000000000000000000
:100100000000000000000000000000004F02000896
:1001100000000000000000004F0200084F0200082D
:100120004F0200084F0200084F0200084F0200086B
:100130004F02000800000000000000000000000066
:100140004F0200084F0200084F0200084F0200084B
:100150004F0200084F0200084F0200084F0200083B
:100160004F0200084F0200084F0200080000000084
:100170004F0200084F0200080000000000000000CD
:100180004F0200084F0200084F02000800F002F87A
:1001900000F041F80AA090E8000C82448344AAF1E0
:1001A0000107DA4501D100F036F8AFF2090EBAE8DE
:1001B0000F0013F0010F18BFFB1A43F0010318479B
:1001C0003826000058260000103A24BF78C878C1AD
:1001D000FAD8520724BF30C830C144BF04680C604D
:1001E000704700000023002400250026103A28BF95
:1001F00078C1FBD8520728BF30C148BF0B60704799
:10020000732900F0AC81002070471FB502F0B0FAEE
:100210001FBD10B510BD00F0A6F91146FFF7F5FFA0
:1002200001F08CFF00F0C4F903B4FFF7F2FF03BC48
:1002300000F0CCF90948804709480047FEE7FEE78F
:10024000FEE7FEE7FEE7FEE7FEE7FEE7FEE7FEE786
:1002500004480549054A064B70470000691B000821
:100260008D010008400100204007002040030020CD
:100270004003002053EA020C00F069802DE9F04BA6
:100280004FF00006002B1FBFB3FA83F503FA05F405
:1002900024FA05F65E4012BF1643B2FA82F502FA5E
:1002A00005F4C5F120051EBF22FA05FC44EA0C0442
:1002B000203556EA044C4FEA144418BF641C4FF032
:1002C00000084FF00009904271EB030C39D300296C
:1002D00019BFB1FA81F701FA07F6B0FA80F700FA10
:1002E00007F6C7F120071EBF20FA07FC46EA0C06F6
:1002F0002037B6FBF4FCA7EB0507103F07F01F0BF8
:10030000CBF120060CFA0BFB2CFA06F644BFB346E1
:100310000026202FA4BF5E464FF0000B5BEA060CC0
:1003200008BF4FF0010B19EB0B09ABFB027C48EB4C
:100330000608C01B06FB02CC0BFB03CC71EB0C01C7
:10034000C1E70B46024641464846BDE8F08B13B56F
:100350004FF000004FF00001AFF30080BDE81C40FB
:10036000704700000FB41CB5074B06AA7B446946D2
:100370000090059800F0C9F80020694600F0D8F810
:100380001CBC5DF814FB0000C10100002DE9F04128
:100390000E460446002020622046E168884730B3BC
:1003A000252805D0D4E901219047206A401CF2E7B6
:1003B000E168204600278847050018D0A5F14100D4
:1003C000192802D820354FF40067324629462046C6
:1003D0002760FFF715FF40B1012804D0F61D26F075
:1003E00007060836D8E7361DD6E72846DAE7206A3A
:1003F000BDE8F08170B50C460546012A05D0287885
:10040000800600D5EA69002302E0012305E05B1CB9
:10041000934202D2E05C0028F9D1A869E618C01A1C
:10042000A861286A184428622846AFF3008004E0D7
:10043000D5E9012114F8010B9047B442F8D32846BE
:10044000AFF3008070BD10B5203AC0F00B80B1E86A
:100450001850203AA0E81850B1E81850A0E81850F9
:10046000BFF4F5AF5FEA027C24BFB1E81850A0E802
:10047000185044BF18C918C0BDE810405FEA827C1C
:1004800024BF51F8043B40F8043B08BF7047D20733
:1004900028BF31F8023B48BF11F8012B28BF20F8D4
:1004A000023B48BF00F8012B70474FF0000200B537
:1004B000134694469646203922BFA0E80C50A0E887
:1004C0000C50B1F12001BFF4F7AF090728BFA0E835
:1004D0000C5048BF0CC05DF804EB890028BF40F801
:1004E000042B08BF704748BF20F8022B11F0804F43
:1004F00018BF00F8012B7047704770477047000025
:1005000001694A1C02610878704700B58FB0CDE9D7
:1005100001310021059105497944CDE903101146C7
:100520006846FFF733FF0FB000BD0000E5FFFFFF97
:100530000A6802F8010B0A60704710B5436913B1ED
:10054000AFF3008001E0FFF755FF012010BD1278E6
:1005500000F124010A7000224A700122EDE71168BF
:100560004FF0FF32E9E7754600F02CF8AE46050083
:100570006946534620F00700854618B020B5FFF7BE
:1005800067FEBDE820404FF000064FF000074FF037
:1005900000084FF0000B21F00701AC46ACE8C009A1
:1005A000ACE8C009ACE8C009ACE8C0098D467047AA
:1005B00010B50446AFF300802046BDE81040FFF7B9
:1005C00033BE000000487047E000002001491820B9
:1005D000ABBEFEE7260002007047FEE7704772B62A
:1005E000FEE7000070B5044600F01AF90546601CED
:1005F00002D004480078044400F012F9401BA042E5
:10060000FAD370BD000000202DE9F04FDFF8E09133
:10061000002301270326A9F1040B85B00F2509F15A
:10062000040AABF1040EDBE007FA03FC12EA0C0249
:100630007ED00C7904F00304012C01D0022C20D1CF
:10064000846800945C0006FA04F80494009C24EA90
:1006500008040094D1F80C80049C08FA04F8009C6B
:1006600048EA0408C0F80880446824EA0C0491F8B9
:1006700004C0CCF3001C0CFA03FC4CEA040CC0F8D8
:1006800004C00C79E443A4070DD0D0F80CC04FEAA5
:10069000430806FA08F42CEA040C8C6804FA08F4FF
:1006A00044EA0C04C4600C7904F00304022C19D150
:1006B000DC0800EB84040294246A4FEA437C4FEA8E
:1006C000DC6CCDF810C005FA0CFC24EA0C04D1F85F
:1006D0001080DDF810C008FA0CF848EA0408029C03
:1006E000C4F8208004684FEA430806FA08FC24EAAC
:1006F0000C0491F804C00CF0030C0CFA08FC4CEA52
:10070000040CC0F800C04C6814F4403F67D0394C6A
:10071000D4F860C04CF0010CC4F860C0246E23F023
:10072000030C04F001040094334C6444029400E090
:1007300055E0A4684FEA837C4FEA1C7805FA08FC70
:1007400024EA0C04B0F1904F06D0DFF8B0C0604549
:1007500005D14FF0010C0BE04FF0000C08E0DFF882
:10076000A0C0604502D14FF0020C01E04FF0070C31
:100770000CFA08FC4CEA040C029CC4F808C0D9F836
:100780000040CC46D1F8048094435FEAC82800D5E5
:100790001443CCF80040DAF80040D446D1F8048085
:1007A00094435FEA882800D51443CCF80040DBF876
:1007B0000040DC46D1F8048094435FEA883800D5D5
:1007C0001443CCF80040DEF80040F446D1F8048031
:1007D00094435FEAC83800D51443CCF800405B1C52
:1007E0000C682246DC407FF41FAF05B000F00AB869
:1007F00008040140001002400000014000040048CD
:100800000008004830BCBDE8C08F0069084000D037
:10081000012070470AB18161704781627047000012
:10082000014880687047000000000020024881688D
:1008300002781144816070470000002010B5002448
:10084000032000F063F80F2000F008F808B101243D
:1008500001E000F025F8204610BD000070B50E4EF6
:1008600005460024307898B14FF47A71B1FBF0F06E
:100870000A490968B1FBF0F000F0B4FD40B9102D51
:1008800006D200222946501E00F020F8756000E0D4
:100890000124204670BD0000000000200C00002054
:1008A000094808B5016E41F001010166016E01F0D1
:1008B00001010091816D41F080518165806D00F0F2
:1008C0008050009008BD000000100240F0B40E4BB4
:1008D0001B680C46C3F30223C3F10705042D00D99E
:1008E0000425191D072901D2002300E0DB1E012683
:1008F00006FA05F1491E214099409E40761E164099
:100900003143F0BC01F088BB0CED00E0064900F07B
:10091000070208684FF6FF03184040EA0220034A26
:1009200010430860704700000CED00E00000FA057D
:100930001649B0F5007F0868C0F3412009D00228AD
:1009400005D0086820F4C06040F480600860002092
:1009500070470128FBD0086820F4C06040F40070A4
:1009600008600B483222006850430A4AB0FBF2F09C
:10097000401C00E0401E4A69520501D50028F9D10B
:1009800048694005E3D5032070470000007000402F
:100990000C00002040420F000248006800F4C060D4
:1009A00070470000007000400248016841F4807107
:1009B00001607047007000400248016841F0040186
:1009C00001607047001002402DE9F84F04460027EF
:1009D00000889C4D3E46000515D5E06B60B1B0F532
:1009E000000F04D0B0F5400F2BD001270AE0E868D3
:1009F00040F48030E86024E00021201D00F0A0FFDA
:100A000007001ED03E462068800338D5A86D4FF001
:100A10000008C00009D4A86D40F08050A865A86DFA
:100A20004FF0010800F080500090DFF81CA2DAF8C7
:100A3000001041F48071CAF80010FFF7F1FE814602
:100A400010E0D5F88800E16B20F440000843C5F8B9
:100A50008800D8E7FFF7E4FEA0EB0900022801D9DF
:100A6000032704E0DAF80000C005F3D5EFB33E46F3
:100A7000B8F1000F03D0A86D20F08050A865207851
:100A8000C00707D0D5F88800216A20F0030008438A
:100A9000C5F888002078800707D5D5F88800616AF6
:100AA00020F00C000843C5F888002078800607D5A0
:100AB000D5F88800A16A20F440600843C5F8880092
:100AC0002088800507D5D5F88800616B20F4402088
:100AD0000843C5F888002088400509D5D5F8880066
:100AE000A16B20F44010084300E02EE0C5F8880018
:100AF0002078400607D5D5F88800E16A20F44050F8
:100B00000843C5F888002088C00507D5D5F88800B7
:100B1000216B20F440300843C5F8880020884FF04E
:100B2000006780044FF080684ED5D5F88800216CAE
:100B300020F040600843C5F88800206CB8423BD1E3
:100B4000E86840F48010E8603EE0D5F8900010F4CA
:100B5000407014D0216D814211D0D5F89000D5F8A5
:100B6000901020F4407041F48031C5F89010D5F811
:100B7000901021F48031C5F89010C5F89000C0079E
:100B800011D0FFF74DFE074641F2883907E000BF5C
:100B9000FFF746FEC11B494501D9032668E7D5F892
:100BA00090008007F4D5D5F89000216D20F44070B6
:100BB0000843C5F890005BE7404505D10121201DA1
:100BC00000F0BEFE00B106462068400317D5D5F8F8
:100BD0008800616C20F040600843C5F88800606CB4
:100BE000B84204D1E86840F48010E86007E040456E
:100BF00005D10121201D00F0A3FE00B1064620888A
:100C0000400411D5D5F88800A16C20F0405008436D
:100C1000C5F88800A06CB0F1805F05D10221201DCD
:100C200000F08EFE00B106462088000406D555F877
:100C3000880FE16C20F0804008432860304600F0C7
:100C400005B80000001002400070004018BCBDE86C
:100C5000E08F00002DE9F0470F4605006BD0494EAC
:100C6000306800F00700B84209D2306820F0070071
:100C700038433060306800F00700B8425BD1287814
:100C8000414C80070AD5A868A16801F0F0018842AC
:100C900004D9A16821F0F0010143A1602878C007C0
:100CA0002CD06868032811D0022812D0216898B18E
:100CB000490500293FDAA16821F003010143A16041
:100CC000FFF7AEFD804641F2883910E021688901C6
:100CD000EFE721688903ECE78907EAE7FFF7A0FD62
:100CE000A0EB0801494502D90320BDE8F087A068C0
:100CF000696800F00C00B0EB810FEFD12878800715
:100D00000AD5A868A16801F0F001884204D2A16860
:100D100021F0F0010143A160306800F00700B84203
:100D20000BD9306820F0070038433060306800F09D
:100D30000700B84201D00120D7E72878400705D541
:100D4000A068E96820F4E0600843A0602878000704
:100D500006D5A068296920F4605040EAC100A0606F
:100D600000F03EF8A168094AC1F30311515C01F09B
:100D70001F01C8400649086006480068BDE8F04702
:100D8000FFF76CBD0020024000100240B0270008B1
:100D90000C0000200400002005480649006889680E
:100DA000054AC1F30221515C01F01F01C8407047A0
:100DB0000C00002000100240F027000805480649FA
:100DC00000688968054AC1F3C221515C01F01F0126
:100DD000C84070470C00002000100240F0270008B7
:100DE00070B52549002318468A68CC6812F00C02B9
:100DF00004F00306214C4FEA640509D00C2A05D003
:100E0000042A32D0082A00D1284670BD012E10D104
:100E10000B681B0704D4D1F89430C3F3032302E01A
:100E20000B68C3F30313164E56F82330DAB10C2ABD
:100E3000EBD1C86800F00300022818D0032818D0AE
:100E40001846CA68CB68C2F30212C3F306234343B1
:100E5000521CB3FBF2F2C868C0F34160401C400072
:100E6000B2FBF0F070BD184670BD204670BD204644
:100E7000E7E72846E5E70000001002400024F40000
:100E8000C02700082DE9F84304006FD0FA4DA86888
:100E900000F00C06E86800F003072078C00664D56F
:100EA00076B10C2E01D1012F0AD0A0690028286844
:100EB0007AD040F001002860FFF7B2FC80465DE088
:100EC0002868800702D5A0690028DED0216A28683A
:100ED000000703D5286800F0F00004E0D5F894007E
:100EE000F02202EA1010814216D9084600F0BEFD39
:100EF00000283BD1286840F0080028602868216A53
:100F000020F0F000084328606868E16920F47F4021
:100F100040EA0120686016E0286840F00800286078
:100F20002868216A20F0F000084328606868E169B9
:100F300020F47F4040EA0120686026B9206A00F072
:100F400095FD0028D5D1FFF74BFFA968CB4AC1F327
:100F50000311515C01F01F01C840C9490860C9482C
:100F60000068FFF77BFC00287ED12EE0CAE000BFBE
:100F7000FFF756FCA0EB0800022876D82868800707
:100F8000F6D5286840F0080028602868216A20F01B
:100F9000F000084328606868E16920F47F4040EA77
:100FA0000120686011E0FFE720F001002860FFF7F2
:100FB00037FC804606E000BFFFF732FCA0EB0800DC
:100FC0000228DAD828688007F6D42078C00740D0F5
:100FD000082E18D00C2E01D1032F14D06068B0F564
:100FE000803F17D0B0F5A02F286817D020F48030AC
:100FF0002860286820F4802028606068E0B1FFF74E
:101000000FFC804614E02868800322D56068002821
:1010100078D01EE0286840F48030EDE740F480206E
:101020002860F7E7FFF7FCFBA0EB08006428A4D8D2
:1010300028688003F6D50CE0FFF7F2FB804605E058
:10104000FFF7EEFBA0EB0800642896D82868800321
:10105000F6D4207880073BD5042E11D00C2E01D178
:10106000022F0DD0E06801E0AAE1FFE00028286827
:101070001ED040F480702860FFF7D2FB07460CE0DA
:10108000286840050CD5E0680028C1D008E000BF02
:10109000FFF7C6FBC01B022893D828684005F7D588
:1010A0006868217C20F0F85040EA016068600FE039
:1010B00020F480702860FFF7B3FB074605E000BF0F
:1010C000FFF7AEFBC01B0228B1D828684005F7D453
:1010D0002078000729D560690028D5F8940012D03F
:1010E00040F00100C5F89400FFF79AFB074604E0C2
:1010F000FFF796FBC01B022899D8D5F8940080070B
:10110000F6D512E02BE120F00100C5F89400FFF7BE
:1011100087FB074605E000BFFFF782FBC01B0228E4
:1011200085D8D5F894008007F6D42078400766D596
:10113000A86D0027C00008D4A86D40F08050A865B5
:10114000A86D012700F0805000904F480168C90544
:1011500012D40168814641F480710160FFF760FBA1
:10116000804605E0FFF75CFBA0EB080002287DD875
:10117000D9F80000C005F5D5A068012816D00528CB
:10118000D5F8900017D020F00100C5F89000D5F8F0
:10119000900020F0040000BFC5F89000A06841F264
:1011A0008839C0B1FFF73CFB80460FE0D5F89000CE
:1011B00040F00100F0E740F00400C5F89000F5E7CA
:1011C000FFF72EFBA0EB080149454FD8D5F890005A
:1011D0008007F5D50EE0FFF723FB804606E000BF51
:1011E000FFF71EFBA0EB080149453FD8D5F890005A
:1011F0008007F5D41FB1A86D20F08050A865207835
:10120000800628D5606A0028D5F8980012D040F0F2
:101210000100C5F89800FFF703FB074605E000BF93
:10122000FFF7FEFAC01B022820D8D5F898008007E7
:10123000F6D510E020F00100C5F89800FFF7F0FAAD
:10124000074604E0FFF7ECFAC01B02280ED8D5F8D9
:1012500098008007F6D4A06AF0B3022816D00C2EAE
:101260007DD0286820F08070286000E0A7E0FFF7BC
:10127000D7FA0446A6E0000000100240B02700089C
:101280000C0000200400002000700040E868E26AC2
:1012900000F00301914228D1216B00F07002090196
:1012A0001039914221D1626B00F4FE41B1EB022F63
:1012B0001BD194F8382000F07841B1EBC26F14D103
:1012C000A18F00F4C00249084905A1F5001191421F
:1012D0000BD194F8401000E06AE04908490600F09C
:1012E000C060A1F1007181424BD00C2E73D02868F0
:1012F000400170D4286820F080702860FFF790FAD1
:10130000064604E0FFF78CFA801B022857D82868AD
:101310008001F7D4F4E90B016FF00F0202EB011129
:101320000843218A5204490802EB4151A26841EA6C
:1013300002210843217D4FF07E42490802EB4161C2
:101340000843217B40EAC160E968244A1140084310
:10135000E860286840F080702860E86800E03AE0C3
:1013600040F08070E860FFF75BFA044605E000BFDC
:10137000FFF756FA001B022821D828688001F7D50C
:1013800027E02868800124D4286840F08070286015
:10139000E86840F08070E860FFF742FA044604E035
:1013A000FFF73EFA001B022809D828688001F7D50C
:1013B0000FE000BFFFF734FA001B022802D9032018
:1013C000BDE8F88328688001F4D4E868044908403F
:1013D000E8600020F4E70120F2E700008C809D0126
:1013E000FCFFEEFE10B5401EB0F1807F01D301205E
:1013F00010BD4FF0E02460610F21601700F00CFE7B
:101400000020A06107202061002010BDF0B590F8F9
:101410003C20012A29D0012480F83C40022280F897
:101420003D2003685A689D68114EB34203D122F4EF
:1014300070074A683A4322F070070A683A435A60D4
:101440000268B24205D0B2F1804F02D0094B9A42F5
:1014500004D1896825F080031943916080F83D40EC
:10146000002180F83C100846F0BD0220F0BD0000CD
:10147000002C01400040014010B5040003D094F856
:101480003D0010B107E0012010BD002084F83C00B1
:10149000204600F023F8022084F83D00211D20683A
:1014A00000F06AFB012084F8480084F83E0084F8CC
:1014B0003F0084F8400084F8410084F8420084F83A
:1014C000430084F8440084F8450084F8460084F81A
:1014D000470084F83D00002010BD000008B50068FA
:1014E0000649884208D10648016E41F40061016650
:1014F000006E00F40060009008BD0000002C014068
:101500000010024090F83D10012901D001207047E1
:10151000022180F83D1000680B49884205D0B0F1E7
:10152000804F02D00949884207D18168084A11409A
:10153000062906D0B1F5803F03D0016841F00101D2
:101540000160002070470000002C01400040014075
:101550000700010070B5044690F83C000025012802
:1015600017D0012684F83C60022084F83D002268F0
:1015700090682F4B184020F47F40906008685028F6
:1015800038D00DDC20284FD005DC90B3102811D1C5
:101590004AE0022070BD302846D040280AD13BE006
:1015A00060282FD070280DD0B0F5805F03D0B0F543
:1015B000005F12D0012584F83D60002084F83C00D3
:1015C000284670BDCB68D1E90121206800F00AFBF4
:1015D0002068816841F0770109E0CB68D1E90121F9
:1015E000206800F0FFFA2068816841F48041816042
:1015F000E1E719E0CA684968206800F005FB50215E
:10160000206806E0CA684968206800F00EFB602187
:10161000206800F0F1FACEE7CA684968206800F057
:10162000F3FA40212068F4E7226801461046F0E70B
:1016300088FFFEFF10B5040002D0A06F10B107E0D4
:10164000012010BD002084F87400204600F026F828
:101650002420A0672068016821F001010160204674
:1016600000F088FB0128ECD0606A10B1204600F041
:10167000EEFA2068416821F4904141602068816859
:1016800021F02A0181602068016841F001010160B8
:101690002046BDE8104000F03EBB0000F0B59BB016
:1016A0000446142115A8FEF700FF54216846FEF7F2
:1016B000FCFE1C492068884232D10224002668467C
:1016C00009960094FFF780F908B1FEF788FF1648E5
:1016D000816D41F400318165816D01F400311A9111
:1016E000C16C41F00101C164C06C15A900F001009A
:1016F0001A90042081E8510003250720CDE91850F5
:101700004FF090473846FEF77FFFCDE917654FF45D
:1017100000401995CDE9150415A93846FEF774FF68
:101720001BB0F0BD00440040001002402DE9F8431A
:101730000446806F1F4616460D4620284FD1CDB176
:10174000C6B194F87400012849D0012084F87400CF
:101750004FF00008C4F880802120A067FFF760F8F0
:10176000A4F850608146A4F85260A068B0F5805F8C
:1017700003D004E00120BDE8F883206928B12E469B
:101780005FF0000584F8748010E00026FAE78021FD
:10179000204600F0DDFBB8B9C6B116F8010B216890
:1017A0000885B4F85200401EA4F85200B4F8520064
:1017B0004B464FF0000200970028E8D14FF040015F
:1017C000204600F0C5FB30B10320D4E735F8020B0A
:1017D000C0F30800E3E72020A0670020CBE7022049
:1017E000C9E7FEE7F0B587B014216846FEF75DFE55
:1017F0002648C16C41F00401C164C16C01F00401D0
:101800000591C16C41F00101C164C16C01F001019D
:101810000591C16C41F00201C164C06C40F6FB143B
:1018200000F002004FF0904605900022214630461D
:10183000FEF7F0FF164F002230213846FEF7EAFF90
:101840000125CDE900450024029469463046039401
:10185000FEF7DAFE0320CDE900046946384602941B
:10186000FEF7D2FE4FF4C060CDE900046946304671
:101870000294FEF7C9FE30200090CDE9015469467C
:1018800038460394FEF7C0FE07B0F0BD00100240DA
:101890000004004810B588B0002418480594069448
:1018A0000394049400940194134902940160472125
:1018B000C0E901144FF6FE71C0E90314446184616C
:1018C000FFF7DAFD08B172B6FEE74FF480500390DF
:1018D00003A90A48FFF73EFE08B172B6FEE700947E
:1018E0000194694605480294FFF790FD002801D055
:1018F00072B6FEE708B010BD002C014010000020B9
:101900000C4810B50A4901604FF4E13141600021F3
:1019100081600C22C160C0E904128161C161016271
:101920004162FFF787FE002801D072B6FEE710BDC6
:10193000004400405C000020FEE7FEE77047000026
:101940002DE9F041444C05468846E06800268107B1
:1019500028680DD0E16801F00301814216D1A8B1D9
:10196000E0686968C0F30210401C88420ED120E094
:10197000012804D0022805D0032807D108E02168F7
:10198000890701E021684905002907DB01265FE09E
:101990002168890302D421684903F5E7E1686A6890
:1019A0006FF00F0321F0730103EB021211430143A7
:1019B000E160206820F080602060FEF731FF07467C
:1019C00005E000BFFEF72CFFC01B022837D82068B7
:1019D0000001F7D4B8F1000F18D0B8F1010F1DD0F5
:1019E000287D4FF07E41400801EB4060A96840EA45
:1019F00001202169194A114008432061206840F004
:101A000080602060FEF70CFF07461AE0A868297B7B
:101A1000000240EAC1602169114AECE7288A1149B5
:101A2000400801EB4050A96840EA012021690E4AB4
:101A3000E1E700BFFEF7F4FEC01B022801D9032630
:101A400006E020680001F5D52069A96908432061F6
:101A50003046BDE8F081000000100240FF80FFF931
:101A6000FF80FF070000E0FFFF809FFFF8B51C4DDF
:101A700006460024A86DC00002D5FEF78DFF0DE0DC
:101A8000A86D40F08050A865A86D00F080500090CF
:101A9000FEF782FFA96D21F08051A965B0F5007FA6
:101AA00004D0802E07D94FF003040AE0802E08D915
:101AB000A02E01D804E001D1022402E0702E00D152
:101AC00001240848016821F00701214301600068F2
:101AD00000F00700A04201D00120F8BD0020F8BDB1
:101AE00000100240002002407047FEF79FBE000039
:101AF00010B596B044216846FEF7D7FC142111A812
:101B0000FEF7D3FC4FF40070FEF712FF08B172B677
:101B1000FEE7FEF749FF134850F8901F21F0180127
:101B2000016014200090012000240290CDE90604F9
:101B3000602008900A946846FFF7A4F908B172B6CD
:101B4000FEE70F20CDE9110413941494002111A88D
:101B50001594FFF77FF808B172B6FEE7FEF72CFF89
:101B600016B010BD001002400248016841F4700137
:101B70000160704788ED00E070B50268164B4FF0C9
:101B80008046984201D0B04203D122F070044A68E6
:101B90002243124C124D984205D0B04203D0A042CD
:101BA00001D0A84203D122F44076CA6832434E697C
:101BB00022F08002324302608A68C2620A6882624E
:101BC000984203D0A04201D0A84201D10969016323
:101BD0000121416170BD0000002C01400040014026
:101BE0000044014010B5846842EA032224F47F4493
:101BF0000A432243826010BD826822F070020A43C9
:101C000042F007018160704710B5036A046A24F04E
:101C100001040462846924F0F00444EA021423F00D
:101C20000A020A438461026210BD10B5036A23F000
:101C3000100303628369046A23F4704343EA0232A7
:101C400024F0A00343EA01118261016210BD90F803
:101C50002410C90706D001684A68836A22F400325A
:101C60001A434A6090F82410890706D501684A682B
:101C7000C36A22F480321A434A6090F8241049075C
:101C800006D501684A68036B22F480221A434A6031
:101C900090F82410090706D501684A68436B22F4BE
:101CA00000421A434A6090F82410C90606D501681C
:101CB0008A68836B22F480521A438A6090F8241059
:101CC000890606D501688A68C36B22F400521A435C
:101CD0008A6090F82410490611D501684A68036C9F
:101CE00022F480121A434A60016CB1F5801F06D1BC
:101CF00001684A68436C22F4C0021A434A6090F8B3
:101D00002410090606D501684A68806C22F4002276
:101D100002434A607047F8B500260446C0F8806068
:101D2000FEF77EFD0546206800686FF07E470007DD
:101D300008D52B4600224FF400112046009700F0F2
:101D400007F960B92068006840070AD52B460022D1
:101D50004FF480012046009700F0FAF808B1032004
:101D6000F8BD2020A067E067266684F87460002034
:101D7000F8BD00002DE9F041044601688068226941
:101D8000E66910436269002532431043694B0A68D3
:101D9000694E324002430A6020684168E26821F4DB
:101DA0004051114341602168A069994201D0226AE3
:101DB00010438A6822F4306202438A605F492768D0
:101DC0005F488F420DD1D0F8880010F0030006D094
:101DD000012838D0022834D0032821D135E0012150
:101DE0001FE058498F420BD1D0F8880010F00C004A
:101DF00025D0042827D0082823D00C2810D124E08F
:101E00009F420DD1D0F8880010F4406017D0B0F593
:101E1000806F18D0B0F5006F13D0B0F5406F14D0BC
:101E20001021494A00264FF400409F422FD171B142
:101E300002290FD004290FD0082973D10FE0002107
:101E4000EFE70221EDE70421EBE70821E9E7FEF7E0
:101E5000A3FF03E0104602E0FEF7C2FFF0B36268A2
:101E600002EB420181425DD8B0EB023F5AD8010E2D
:101E700003025008181871410023FEF7FBF9334A9A
:101E8000A0F5407191424DD82168C8604BE0E369EC
:101E90004FF6EF77834228D1092943D2DFE801F0DA
:101EA00005080B420D4242421000FEF775FF06E0A6
:101EB000FEF784FF03E0104602E0FEF791FF68B1F1
:101EC0004100606801EB5001B1FBF0F0A0F110019E
:101ED000B94227D84FF6F071014000E023E0C0F38B
:101EE000420001432068C1601DE009291AD2DFE8E1
:101EF00001F005080B190D1919191000FEF74CFF18
:101F000006E0FEF75BFF03E0104602E0FEF768FF25
:101F100048B1616800EB5100B0FBF1F0A0F1100195
:101F2000B94205D9012566662846A666BDE8F08156
:101F300080B2A9E700800040F369FFEF003801405C
:101F400000100240004400400024F400FFFC0F0099
:101F50002DE9F0479A4617460E4604464FF0000911
:101F60004FF02008089D4AE0681C48D0FEF758FC56
:101F7000A0EB0A00A8422AD84DB32068016849079F
:101F80003DD5C069C043000539D421684FF40060D5
:101F90000862206850E8001F21F4D07140E8001268
:101FA000002AF6D12068083050E8001F21F0010116
:101FB00040E80012002AF5D1C4F87880C4F87C808B
:101FC000C4F8808084F874900320BDE8F08721680D
:101FD00051E8000F20F4D07041E80002002AF6D149
:101FE0002068083050E8001F21F0010140E800128D
:101FF000002AF5D1C4F87880C4F87C80E2E7206834
:10200000C06936EA000004D00020B842ACD00020FD
:10201000DBE70120F9E7FEE70907090E002804DBEA
:1020200000F1E02080F80014704700F00F0000F18C
:10203000E02080F8141D7047044900220B685A62A2
:1020400009684A6A8242FCD37047000010000020F1
:1020500010B5012000F04DF8BDE810400220FEF759
:10206000C1BA10B53220FEF7BDFA302000F041F8B9
:102070000520FEF7B7FA302000F03BF80120FEF70C
:10208000B1FA302000F035F80A20FEF7ABFA202034
:1020900000F02FF80A20FEF7A5FA282000F029F812
:1020A0000120FEF79FFA082000F023F80120FEF738
:1020B00099FA012000F01DF80120FEF793FA0120A3
:1020C000FEF790FA062000F014F80120FEF78AFAD5
:1020D000BDE810400D2000F00CB810B1012805D16A
:1020E00002E041F0800101E041F0C001C8B2AFF36D
:1020F000008010B504460009002100F006FB04F042
:102100000F00BDE81040002100F0FFBA10B50446F2
:102110000009012100F0F9FA04F00F00BDE81040B9
:10212000012100F0F2BA10B5044602E0641CFFF78A
:10213000EDFF20780028F9D110BD0000AEB0FEF709
:102140007DFBFFF7D5FCFFF74DFBFFF7A3FBFFF788
:10215000D7FB9048FFF7D6F9FFF783FF0021084629
:10216000FFF7BBFFFFF774FF8BA0FFF7DCFF8CA02E
:10217000FFF7D9FF00210120FFF7AFFF2422894993
:1021800019A8FEF760F9874A0DF1980C2432002453
:102190000FCA8CE80F0084A20CAB07CA814682A04C
:1021A0008A46D0F8008080A0934607C883E80700DD
:1021B0007DA080A100682A9007C905AB254683E869
:1021C000070079A102AB07C983E807007CA110AB27
:1021D00007C983E807007DA113AB07C983E807009F
:1021E000202026468DF894004FEA040700F0FAF804
:1021F000092C04DB1BE000BF00F0F4F817E05F28B7
:1022000015D00CA9085502A90A46085572A116A8AE
:10221000641CFEF7A7F800210120FFF75EFF16A857
:10222000FFF781FF21460120FFF757FFDEE7E7B107
:10223000092CDBD1042D35DA5F28DDD02AA94855D9
:1022400005A92A2048550A4663A122A86D1CFEF75D
:1022500089F800210120FFF740FF22A8FFF763FF64
:1022600029460120FFF739FFC6E7092CBED100211E
:102270000846FFF732FFFFF7EBFE58A0FFF753FFCA
:1022800005AA55A122A8FEF76DF800210120FFF74D
:1022900024FF22A8FFF747FF00210120FFF71DFFC1
:1022A0000127A3E7042D0BD126A92AA8CDE9000117
:1022B0000423092219A90CA800F0EAF9012823D067
:1022C00013AA45A116A8761CFEF74CF800210120A0
:1022D000FFF703FF16A8FFF726FFCDE904B8CDE905
:1022E000029A4FF47A70FEF77DF900210120FFF782
:1022F000F4FE02AA38A116A8FEF734F816A8FFF7D4
:1023000012FF032E22D02FE010AA33A116A8FEF749
:1023100029F800210120FFF7E0FE16A8FFF703FFD0
:10232000CDE904B8CDE9029A4FF47A70FEF75AF974
:1023300000210120FFF7D1FE02AA27A116A8FEF76F
:1023400011F816A8FFF7EFFE522000E042208DF8AA
:10235000940010486423012225A94C30FFF7E6F9C8
:1023600020208DF89400002600242546274621468B
:102370002046FFF7B2FEFFF76BFE07A0FFF7D3FE84
:1023800007A0FFF7D0FE00210120FFF7A6FE00F016
:1023900029F834E710000020557365726964000065
:1023A000000000007C2700085F5F5F5F5F5F5F5F8A
:1023B0005F0000005F5F5F5F2020202000000000C2
:1023C000436F72726563743A6F00000057726F6EEC
:1023D00067212121210000002573000050617373E3
:1023E000000000002DE9F047A84C4FF05F0A0122E1
:1023F00010212046FEF70EFA012220212046FEF78A
:1024000009FA4FF400684FF09045012241462846F2
:10241000FEF700FA4FF48079002249462846FEF77D
:10242000F9F94FF4007739462846FEF7EEF900280F
:102430007DD07E0031462846FEF7E7F9002877D0A8
:1024400001212046FEF7E1F9002872D00221204642
:10245000FEF7DBF900286DD0012210212046FEF79F
:10246000D9F9012220212046FEF7D4F90022414665
:102470002846FEF7CFF9012249462846FEF7CAF959
:1024800039462846FEF7C1F9002871D03146284662
:10249000FEF7BBF900286CD001212046FEF7B5F904
:1024A000002867D002212046FEF7AFF9002872D03D
:1024B000012210212046FEF7ADF9002220212046FE
:1024C000FEF7A8F9012241462846FEF7A3F90122AA
:1024D00049462846FEF79EF939462846FEF795F903
:1024E000002871D031462846FEF78FF900286CD0BD
:1024F00001212046FEF789F9002867D002212046F5
:10250000FEF783F9002872D0002210212046FEF742
:1025100081F9012220212046FEF77CF90122414663
:102520002846FEF777F901224946284603E022E0D3
:1025300029E031E038E0FEF76DF939462846FEF72C
:1025400064F900287FD031462846FEF75EF900285E
:102550006FD001212046FEF758F900286AD00221E9
:102560002046FEF752F9002875D05046BDE8F087A6
:1025700022E02CE033E0312439462846FEF745F9C5
:102580000028F9D06FE0342431462846FEF73DF9A3
:102590000028F9D067E02BE0372501212046FEF71F
:1025A00034F90028F9D06FE0302502212046FEF7EB
:1025B0002CF90028F9D067E0322439462846FEF786
:1025C00024F90028F9D04EE01AE021E028E0352473
:1025D00031462846FEF719F90028F9D043E038259E
:1025E00001212046FEF711F90028F9D04CE022E045
:1025F000462502212046FEF708F90028F9D043E0DD
:10260000332439462846FEF700F90028F9D02AE09D
:10261000362431462846FEF7F8F80028F9D022E0A3
:10262000392501212046FEF7F0F80028F9D02BE0EB
:1026300009E011E019E0452502212046FEF7E5F802
:102640000028F9D020E0412439462846FEF7DDF87D
:102650000028F9D007E010E0422431462846FEF772
:10266000D4F80028F9D0204680E7432501212046F0
:10267000FEF7CBF80028F9D006E0442502212046D9
:10268000FEF7C3F80028F9D028466FE70004004899
:102690002DE9F84F984616468A4683460024A2F153
:1026A000010919E0002504FB06F712E00AEB05001A
:1026B000395C1BF8050081420DD14D4508D10094CD
:1026C000DDE90A0104231A4600F00EF8012806D0BD
:1026D0006D1CB542EADB641C4445E3DB002000F0DE
:1026E00000B818BCBDE8E08F70B50023049C5443CB
:1026F00007E0CD18C65C655DB54201D0002070BD15
:102700005B1C9342F5DB012070BD70B50446CAB274
:102710004FF0904502212846FEF77CF8C4F3C00232
:1027200080212846FEF776F8C4F38002402128462F
:10273000FEF770F8C4F3400220212846FEF76AF83D
:1027400004F0010210212846FEF764F80122082156
:102750002846FEF75FF81420FFF76EFC00220821E0
:102760002846FEF757F8BDE870401420FFF764BC18
:102770004FF04070E1EE100A704700003930303100
:102780003834303432393030313833313632393010
:1027900030313833383734393030313834303434FC
:1027A00031323334323030303334353634353637F5
:1027B00000000000000000000102030406070809F1
:1027C000A0860100400D0300801A060000350C00B1
:1027D00040420F0080841E0000093D0000127A0074
:1027E0000024F40000366E010048E801006CDC02B1
:1027F0000000000001020304182800080000002067
:1028000010000000C801000828280008100000205F
:1028100030070000E4010008010000001000000083
:082820000000000000093D006A
:040000050800018D61
:00000001FF
